:100000000C942A000C943F000C943F000C943F0089
:100010000C943F000C943F000C943F000C943F0064
:100020000C943F000C943F000C943F000C943F0054
:100030000C943F000C943F000C943F000C943F0044
:100040000C943F000C943F000C943F000C943F0034
:100050000C943F0011241FBECFE5D8E0DEBFCDBF1A
:1000600012E0A0E6B0E0E0EFFCE202C005900D92E5
:10007000A230B107D9F70E94FC0C0C9476160C94B0
:100080000000DF93CF9300D00F92CDB7DEB78B8304
:100090001A8219828B818830A0F4E9E3F0E0808134
:1000A000282F30E08B81882F90E0A90102C0559560
:1000B00047958A95E2F7CA01817090709A83898387
:1000C00050C08B818830C0F08B818031A8F4E6E38A
:1000D000F0E08081282F30E08B81882F90E0089716
:1000E000A90102C0559547958A95E2F7CA0181702A
:1000F00090709A83898335C08B818031C0F08B8169
:100100008831A8F4E3E3F0E08081282F30E08B8190
:10011000882F90E04097A90102C0559547958A9590
:10012000E2F7CA01817090709A8389831AC08B812B
:100130008831B8F08B818032A0F4E0E3F0E0808178
:10014000282F30E08B81882F90E04897A90102C0CA
:10015000559547958A95E2F7CA01817090709A8308
:10016000898389810F900F900F90CF91DF9108952F
:10017000DF93CF9300D0CDB7DEB789836A838981BF
:10018000883060F58A818130A1F4ABE3B0E0EBE325
:10019000F0E08081482F8981282F30E081E090E0D5
:1001A000022E02C0880F991F0A94E2F7842B8C93C9
:1001B000BCC0ABE3B0E0EBE3F0E08081482F898185
:1001C000282F30E081E090E0022E02C0880F991FB6
:1001D0000A94E2F7809584238C93A7C089818830A4
:1001E000A8F18981803190F58A818130B9F4A8E342
:1001F000B0E0E8E3F0E08081482F8981882F90E02B
:100200009C012850304081E090E0022E02C0880F0F
:10021000991F0A94E2F7842B8C9387C0A8E3B0E07F
:10022000E8E3F0E08081482F8981882F90E09C01ED
:100230002850304081E090E0022E02C0880F991FC4
:100240000A94E2F7809584238C936FC08981803172
:10025000A8F18981883190F58A818130B9F4A5E3CC
:10026000B0E0E5E3F0E08081482F8981882F90E0BD
:100270009C012051304081E090E0022E02C0880FA6
:10028000991F0A94E2F7842B8C934FC0A5E3B0E04A
:10029000E5E3F0E08081482F8981882F90E09C0180
:1002A0002051304081E090E0022E02C0880F991F5B
:1002B0000A94E2F7809584238C9337C08981883132
:1002C000A0F18981803288F58A818130B9F4A2E376
:1002D000B0E0E2E3F0E08081482F8981882F90E050
:1002E0009C012851304081E090E0022E02C0880F2E
:1002F000991F0A94E2F7842B8C9317C0A2E3B0E015
:10030000E2E3F0E08081482F8981882F90E09C0112
:100310002851304081E090E0022E02C0880F991FE2
:100320000A94E2F7809584238C930F900F90CF91DD
:10033000DF910895DF93CF9300D0CDB7DEB71A8257
:1003400019821A8219825EC129813A81C901880FF6
:10035000991F820F931FFC01E05AFF4F8081882371
:1003600009F048C029813A81C901880F991F820F7D
:10037000931FFC01EE59FF4F80818130F1F4AAE315
:10038000B0E0EAE3F0E08081482F29813A81C90199
:10039000880F991F820F931FFC01EF59FF4F808137
:1003A000282F30E081E090E0022E02C0880F991FD4
:1003B0000A94E2F7842B8C931DC0AAE3B0E0EAE331
:1003C000F0E08081482F29813A81C901880F991F67
:1003D000820F931FFC01EF59FF4F8081282F30E0DF
:1003E00081E090E002C0880F991F2A95E2F780957E
:1003F00084238C9329813A81C901880F991F820F28
:10040000931FFC01E05AFF4F8081813009F048C002
:1004100029813A81C901880F991F820F931FFC011E
:10042000EE59FF4F80818130F1F4A7E3B0E0E7E3BC
:10043000F0E08081482F29813A81C901880F991FF6
:10044000820F931FFC01EF59FF4F8081282F30E06E
:1004500081E090E0022E02C0880F991F0A94E2F713
:10046000842B8C931DC0A7E3B0E0E7E3F0E080812C
:10047000482F29813A81C901880F991F820F931F44
:10048000FC01EF59FF4F8081282F30E081E090E0A0
:1004900002C0880F991F2A95E2F7809584238C93D8
:1004A00029813A81C901880F991F820F931FFC018E
:1004B000E05AFF4F8081823009F048C029813A819B
:1004C000C901880F991F820F931FFC01EE59FF4F3E
:1004D00080818130F1F4A4E3B0E0E4E3F0E08081D6
:1004E000482F29813A81C901880F991F820F931FD4
:1004F000FC01EF59FF4F8081282F30E081E090E030
:10050000022E02C0880F991F0A94E2F7842B8C9365
:100510001DC0A4E3B0E0E4E3F0E08081482F29812E
:100520003A81C901880F991F820F931FFC01EF596F
:10053000FF4F8081282F30E081E090E002C0880FDB
:10054000991F2A95E2F7809584238C9329813A811B
:10055000C901880F991F820F931FFC01E05AFF4FBA
:100560008081833009F049C029813A81C901880F0F
:10057000991F820F931FFC01EE59FF4F808181303C
:10058000F1F4A1E3B0E0E1E3F0E08081482F2981BC
:100590003A81C901880F991F820F931FFC01EF59FF
:1005A000FF4F8081282F30E081E090E0022E02C0D2
:1005B000880F991F0A94E2F7842B8C931EC0A1E345
:1005C000B0E0E1E3F0E08081482F29813A81C90160
:1005D000880F991F820F931FFC01EF59FF4F8081F5
:1005E000282F30E081E090E0022E02C0880F991F92
:1005F0000A94E2F7809584238C9389819A810196ED
:100600009A83898389819A818032910508F49CCEEE
:100610000F900F90CF91DF910895DF93CF93CDB7D7
:10062000DEB7A6E2B0E0E6E2F0E0808180688C937D
:10063000A6E2B0E0E6E2F0E0808180648C93A6E27E
:10064000B0E0E6E2F0E08081877F8C93A7E2B0E043
:10065000E7E2F0E0808180628C93A7E2B0E0E7E21D
:10066000F0E0808180648C93A7E2B0E0E7E2F0E004
:1006700080818F778C93A6E2B0E0E6E2F0E08081A3
:1006800081608C93A6E2B0E0E6E2F0E080818260D7
:100690008C93A6E2B0E0E6E2F0E0808184608C9387
:1006A000CF91DF910895DF93CF930F92CDB7DEB74F
:1006B0008983A7E2B0E0E7E2F0E08081982F907EA6
:1006C0008981892B8C93A6E2B0E0E6E2F0E080819C
:1006D00080648C93E6E2F0E0808182958F70882FB1
:1006E00090E0817090700097A9F3A6E2B0E0E6E296
:1006F000F0E0808180618C93E4E2F0E08081918180
:100700000F90CF91DF910895DF93CF93CDB7DEB7F0
:100710002E970FB6F894DEBF0FBECDBF80E090E0FD
:10072000A0EAB1E48B879C87AD87BE876B857C850B
:100730008D859E8520E030E04AE755E40E94471110
:10074000DC01CB018F839887A987BA876F81788571
:1007500089859A8520E030E040E85FE30E944D13F0
:1007600088232CF481E090E09E838D833FC06F81CD
:10077000788589859A8520E03FEF4FE757E40E940E
:10078000ED1218164CF56B857C858D859E8520E0D5
:1007900030E040E251E40E944711DC01CB01BC0192
:1007A000CD010E94710FDC01CB019E838D830FC0B0
:1007B00080E991E09C838B838B819C810197F1F789
:1007C0009C838B838D819E8101979E838D838D81F8
:1007D0009E81009769F714C06F81788589859A8515
:1007E0000E94710FDC01CB019E838D838D819E81E0
:1007F0009A83898389819A810197F1F79A83898302
:1008000083E30E94750882E30E94750888E20E94D3
:1008100075088CE00E94750886E00E94750881E0EA
:100820000E9475082E960FB6F894DEBF0FBECDBF9E
:10083000CF91DF9108950F931F93DF93CF93CDB79F
:10084000DEB7C156D0400FB6F894DEBF0FBECDBFA5
:10085000FE01EF59FF4F808389E061E00E94B800FC
:100860008AE060E00E94B800FE01EF59FF4F8081EE
:1008700082958F70882F90E081709070882329F086
:1008800084E061E00E94B80004C084E060E00E945F
:10089000B800FE01EF59FF4F8081829586958770E1
:1008A000882F90E081709070882329F085E061E0C6
:1008B0000E94B80004C085E060E00E94B800FE011C
:1008C000EF59FF4F80818295869586958370882F9A
:1008D00090E081709070882329F086E061E00E94AA
:1008E000B80004C086E060E00E94B800FE01EF5945
:1008F000FF4F808188232CF487E061E00E94B800DC
:1009000004C087E060E00E94B8008BE061E00E94D4
:10091000B800FE01E35AFF4F80E090E0A0E2B1E4AE
:1009200080839183A283B3838E01075A1F4FFE01F8
:10093000E35AFF4F60817181828193812BEA3AEA09
:100940004AEA50E40E944711DC01CB01F8018083A0
:100950009183A283B383FE01E75AFF4F60817181C7
:100960008281938120E030E040E85FE30E944D13F4
:10097000882334F4FE01E85AFF4F81E08083E0C011
:10098000FE01E75AFF4F608171818281938120E0EF
:1009900030E04FE753E40E94ED1218160CF0C0C08F
:1009A000FE01E35AFF4F608171818281938120E0D3
:1009B00030E04AE754E40E944112DC01CB01FE0121
:1009C000EC5AFF4F80839183A283B3838E01005B37
:1009D0001F4FFE01EC5AFF4F60817181828193812C
:1009E00020E030E04AE755E40E944711DC01CB01EA
:1009F000F80180839183A283B383FE01E05BFF4F04
:100A0000608171818281938120E030E040E85FE382
:100A10000E944D13882344F4FE01E25BFF4F81E006
:100A200090E09183808364C0FE01E05BFF4F6081B2
:100A300071818281938120E03FEF4FE757E40E946C
:100A4000ED1218160CF043C0FE01EC5AFF4F608106
:100A500071818281938120E030E040E251E40E9484
:100A60004711DC01CB018E01025B1F4FBC01CD01A0
:100A70000E94710FDC01CB01F801918380831FC0BC
:100A8000FE01E45BFF4F80E991E091838083FE01EA
:100A9000E45BFF4F808191810197F1F7FE01E45BF8
:100AA000FF4F91838083DE01A25BBF4FFE01E25BBB
:100AB000FF4F80819181019711969C938E93FE0147
:100AC000E25BFF4F808191810097D1F64BC08E0190
:100AD000025B1F4FFE01E05BFF4F608171818281ED
:100AE00093810E94710FDC01CB01F8019183808317
:100AF000DE01A65BBF4FFE01E25BFF4F808191816B
:100B000011969C938E93FE01E65BFF4F808191814D
:100B10000197F1F7FE01E65BFF4F9183808322C0CE
:100B20008E01085A1F4FFE01E75AFF4F6081718105
:100B3000828193810E94710FDC01CB01F8018083D7
:100B4000DE01A75BBF4FFE01E85AFF4F80818C9307
:100B5000FE01E75BFF4F80818A95F1F7FE01E75BBD
:100B6000FF4F80838BE060E00E94B800FE01EB5BEA
:100B7000FF4F80E090E0A8E4B3E480839183A283F8
:100B8000B3838E010F5B1F4FFE01EB5BFF4F608154
:100B90007181828193812BEA3AEA4AEA50E40E9409
:100BA0004711DC01CB01F80180839183A283B383D9
:100BB000FE01EF5BFF4F608171818281938120E0B4
:100BC00030E040E85FE30E944D13882334F481E075
:100BD000FE01E05CFF4F80839DC0FE01EF5BFF4F95
:100BE000608171818281938120E030E04FE753E49E
:100BF0000E94ED1218160CF07EC0FE01EB5BFF4F59
:100C0000608171818281938120E030E04AE754E481
:100C10000E944112DC01CB018CAF9DAFAEAFBFAFE4
:100C20006CAD7DAD8EAD9FAD20E030E04AE755E480
:100C30000E944711DC01CB0188AF99AFAAAFBBAFCF
:100C400068AD79AD8AAD9BAD20E030E040E85FE370
:100C50000E944D1388232CF481E090E09FAB8EAB73
:100C60003FC068AD79AD8AAD9BAD20E03FEF4FE767
:100C700057E40E94ED1218164CF56CAD7DAD8EADAB
:100C80009FAD20E030E040E251E40E944711DC01DA
:100C9000CB01BC01CD010E94710FDC01CB019FABE8
:100CA0008EAB0FC080E991E09DAB8CAB8CA99DA968
:100CB0000197F1F79DAB8CAB8EA99FA901979FABD4
:100CC0008EAB8EA99FA9009769F72DC068AD79AD4D
:100CD0008AAD9BAD0E94710FDC01CB019FAB8EAB47
:100CE0008EA99FA99BAB8AAB8AA99BA90197F1F713
:100CF0009BAB8AAB18C0FE01EF5BFF4F6081718137
:100D0000828193810E94710FDC01CB01FE01E05CC6
:100D1000FF4F8083FE01E05CFF4F808189AB89A992
:100D20008A95F1F789ABFE01EF59FF4F8081882F3B
:100D300090E081709070882329F084E061E00E9447
:100D4000B80004C084E060E00E94B800FE01EF59E2
:100D5000FF4F80818695882F90E081709070882366
:100D600029F085E061E00E94B80004C085E060E001
:100D70000E94B800FE01EF59FF4F8081869586954D
:100D8000882F90E081709070882329F086E061E0E0
:100D90000E94B80004C086E060E00E94B800FE0136
:100DA000EF59FF4F8081869586958695882F90E034
:100DB00081709070882329F087E061E00E94B8007C
:100DC00004C087E060E00E94B8008BE061E00E9410
:100DD000B80080E090E0A0E2B1E48DA79EA7AFA7A5
:100DE000B8AB6DA57EA58FA598A92BEA3AEA4AEA89
:100DF00050E40E944711DC01CB0189A79AA7ABA759
:100E0000BCA769A57AA58BA59CA520E030E040E8A9
:100E10005FE30E944D1388231CF481E088A791C0F2
:100E200069A57AA58BA59CA520E030E04FE753E4A7
:100E30000E94ED1218160CF07BC06DA57EA58FA543
:100E400098A920E030E04AE754E40E944112DC0116
:100E5000CB018CA39DA3AEA3BFA36CA17DA18EA14A
:100E60009FA120E030E04AE755E40E944711DC01F1
:100E7000CB0188A399A3AAA3BBA368A179A18AA146
:100E80009BA120E030E040E85FE30E944D138823FF
:100E90002CF481E090E09F8F8E8F3FC068A179A1F4
:100EA0008AA19BA120E03FEF4FE757E40E94ED129B
:100EB00018164CF56CA17DA18EA19FA120E030E019
:100EC00040E251E40E944711DC01CB01BC01CD019D
:100ED0000E94710FDC01CB019F8F8E8F0FC080E9C4
:100EE00091E09D8F8C8F8C8D9D8D0197F1F79D8F5B
:100EF0008C8F8E8D9F8D01979F8F8E8F8E8D9F8D66
:100F0000009769F724C068A179A18AA19BA10E94DA
:100F1000710FDC01CB019F8F8E8F8E8D9F8D9B8FEC
:100F20008A8F8A8D9B8D0197F1F79B8F8A8F0FC0D7
:100F300069A57AA58BA59CA50E94710FDC01CB0148
:100F400088A788A5898F898D8A95F1F7898F8BE08D
:100F500060E00E94B80080E090E0A8E4B3E48D8BEC
:100F60009E8BAF8BB88F6D897E898F89988D2BEA88
:100F70003AEA4AEA50E40E944711DC01CB01898B2E
:100F80009A8BAB8BBC8B69897A898B899C8920E091
:100F900030E040E85FE30E944D1388231CF481E0B9
:100FA000888B91C069897A898B899C8920E030E09F
:100FB0004FE753E40E94ED1218160CF07BC06D89C8
:100FC0007E898F89988D20E030E04AE754E40E94C2
:100FD0004112DC01CB018C879D87AE87BF876C8572
:100FE0007D858E859F8520E030E04AE755E40E94AC
:100FF0004711DC01CB0188879987AA87BB87688561
:1010000079858A859B8520E030E040E85FE30E9497
:101010004D1388232CF481E090E09F838E833FC0A2
:10102000688579858A859B8520E03FEF4FE757E407
:101030000E94ED1218164CF56C857D858E859F8576
:1010400020E030E040E251E40E944711DC01CB0196
:10105000BC01CD010E94710FDC01CB019F838E8307
:101060000FC080E991E09D838C838C819D810197E5
:10107000F1F79D838C838E819F8101979F838E835F
:101080008E819F81009769F724C0688579858A855C
:101090009B850E94710FDC01CB019F838E838E8123
:1010A0009F819B838A838A819B810197F1F79B8330
:1010B0008A830FC069897A898B899C890E94710F04
:1010C000DC01CB01888B8889898389818A95F1F736
:1010D0008983CF59DF4F0FB6F894DEBF0FBECDBF67
:1010E000CF91DF911F910F9108950F931F93DF937D
:1010F000CF93CDB7DEB7C156D0400FB6F894DEBF60
:101100000FBECDBFFE01EF59FF4F808389E060E045
:101110000E94B8008AE060E00E94B800FE01EF592A
:10112000FF4F808182958F70882F90E08170907042
:10113000882329F084E061E00E94B80004C084E0C4
:1011400060E00E94B800FE01EF59FF4F8081829558
:1011500086958770882F90E081709070882329F0A1
:1011600085E061E00E94B80004C085E060E00E9474
:10117000B800FE01EF59FF4F8081829586958695D4
:101180008370882F90E081709070882329F086E02A
:1011900061E00E94B80004C086E060E00E94B800F0
:1011A000FE01EF59FF4F808188232CF487E061E036
:1011B0000E94B80004C087E060E00E94B8008BE0A5
:1011C00061E00E94B800FE01E35AFF4F80E090E02A
:1011D000A0E2B1E480839183A283B3838E01075A96
:1011E0001F4FFE01E35AFF4F60817181828193811D
:1011F0002BEA3AEA4AEA50E40E944711DC01CB01AB
:10120000F80180839183A283B383FE01E75AFF4FE5
:10121000608171818281938120E030E040E85FE36A
:101220000E944D13882334F4FE01E85AFF4F81E0F9
:101230008083E0C0FE01E75AFF4F608171818281A7
:10124000938120E030E04FE753E40E94ED1218163E
:101250000CF0C0C0FE01E35AFF4F608171818281B2
:10126000938120E030E04AE754E40E944112DC011F
:10127000CB01FE01EC5AFF4F80839183A283B3839D
:101280008E01005B1F4FFE01EC5AFF4F60817181A0
:101290008281938120E030E04AE755E40E944711C3
:1012A000DC01CB01F80180839183A283B383FE012B
:1012B000E05BFF4F608171818281938120E030E0AB
:1012C00040E85FE30E944D13882344F4FE01E25B93
:1012D000FF4F81E090E09183808364C0FE01E05B7A
:1012E000FF4F608171818281938120E03FEF4FE762
:1012F00057E40E94ED1218160CF043C0FE01EC5AA0
:10130000FF4F608171818281938120E030E040E273
:1013100051E40E944711DC01CB018E01025B1F4F9B
:10132000BC01CD010E94710FDC01CB01F80191835A
:1013300080831FC0FE01E45BFF4F80E991E0918351
:101340008083FE01E45BFF4F808191810197F1F77B
:10135000FE01E45BFF4F91838083DE01A25BBF4F00
:10136000FE01E25BFF4F80819181019711969C9372
:101370008E93FE01E25BFF4F808191810097D1F651
:101380004BC08E01025B1F4FFE01E05BFF4F60818F
:101390007181828193810E94710FDC01CB01F80180
:1013A00091838083DE01A65BBF4FFE01E25BFF4FAE
:1013B0008081918111969C938E93FE01E65BFF4F95
:1013C000808191810197F1F7FE01E65BFF4F9183E8
:1013D000808322C08E01085A1F4FFE01E75AFF4F3B
:1013E00060817181828193810E94710FDC01CB0148
:1013F000F8018083DE01A75BBF4FFE01E85AFF4F73
:1014000080818C93FE01E75BFF4F80818A95F1F725
:10141000FE01E75BFF4F80838BE060E00E94B80035
:10142000FE01EB5BFF4F80E090E0AAEFB4E4808325
:101430009183A283B3838E010F5B1F4FFE01EB5B91
:10144000FF4F60817181828193812BEA3AEA4AEAF7
:1014500050E40E944711DC01CB01F80180839183A5
:10146000A283B383FE01EF5BFF4F608171818281B4
:10147000938120E030E040E85FE30E944D13882331
:1014800034F481E0FE01E05CFF4F80839DC0FE01EB
:10149000EF5BFF4F608171818281938120E030E0BA
:1014A0004FE753E40E94ED1218160CF07EC0FE01C7
:1014B000EB5BFF4F608171818281938120E030E09E
:1014C0004AE754E40E944112DC01CB018CAF9DAF8E
:1014D000AEAFBFAF6CAD7DAD8EAD9FAD20E030E067
:1014E0004AE755E40E944711DC01CB0188AF99AF70
:1014F000AAAFBBAF68AD79AD8AAD9BAD20E030E05F
:1015000040E85FE30E944D1388232CF481E090E0D3
:101510009FAB8EAB3FC068AD79AD8AAD9BAD20E08F
:101520003FEF4FE757E40E94ED1218164CF56CADF3
:101530007DAD8EAD9FAD20E030E040E251E40E94F1
:101540004711DC01CB01BC01CD010E94710FDC0110
:10155000CB019FAB8EAB0FC080E991E09DAB8CAB14
:101560008CA99DA90197F1F79DAB8CAB8EA99FA982
:1015700001979FAB8EAB8EA99FA9009769F72DC0ED
:1015800068AD79AD8AAD9BAD0E94710FDC01CB01D6
:101590009FAB8EAB8EA99FA99BAB8AAB8AA99BA957
:1015A0000197F1F79BAB8AAB18C0FE01EF5BFF4FD1
:1015B00060817181828193810E94710FDC01CB0176
:1015C000FE01E05CFF4F8083FE01E05CFF4F808105
:1015D00089AB89A98A95F1F789ABFE01EF59FF4FD5
:1015E0008081882F90E081709070882329F084E0BA
:1015F00061E00E94B80004C084E060E00E94B8008E
:10160000FE01EF59FF4F80818695882F90E0817011
:101610009070882329F085E061E00E94B80004C042
:1016200085E060E00E94B800FE01EF59FF4F808125
:1016300086958695882F90E081709070882329F098
:1016400086E061E00E94B80004C086E060E00E948D
:10165000B800FE01EF59FF4F8081869586958695EB
:10166000882F90E081709070882329F087E061E0F6
:101670000E94B80004C087E060E00E94B8008BE0E0
:1016800061E00E94B80080E090E0A0E2B1E48DA7A4
:101690009EA7AFA7B8AB6DA57EA58FA598A92BEA8D
:1016A0003AEA4AEA50E40E944711DC01CB0189A7DB
:1016B0009AA7ABA7BCA769A57AA58BA59CA520E096
:1016C00030E040E85FE30E944D1388231CF481E082
:1016D00088A791C069A57AA58BA59CA520E030E0DC
:1016E0004FE753E40E94ED1218160CF07BC06DA575
:1016F0007EA58FA598A920E030E04AE754E40E9437
:101700004112DC01CB018CA39DA3AEA3BFA36CA1AE
:101710007DA18EA19FA120E030E04AE755E40E9420
:101720004711DC01CB0188A399A3AAA3BBA368A19D
:1017300079A18AA19BA120E030E040E85FE30E940C
:101740004D1388232CF481E090E09F8F8E8F3FC053
:1017500068A179A18AA19BA120E03FEF4FE757E460
:101760000E94ED1218164CF56CA17DA18EA19FA1CF
:1017700020E030E040E251E40E944711DC01CB015F
:10178000BC01CD010E94710FDC01CB019F8F8E8FB8
:101790000FC080E991E09D8F8C8F8C8D9D8D01977E
:1017A000F1F79D8F8C8F8E8D9F8D01979F8F8E8FE0
:1017B0008E8D9F8D009769F724C068A179A18AA1B9
:1017C0009BA10E94710FDC01CB019F8F8E8F8E8DAC
:1017D0009F8D9B8F8A8F8A8D9B8D0197F1F79B8FB1
:1017E0008A8F0FC069A57AA58BA59CA50E94710F51
:1017F000DC01CB0188A788A5898F898D8A95F1F7AF
:10180000898F8BE060E00E94B80080E090E0AAEF52
:10181000B4E48D8B9E8BAF8BB88F6D897E898F8959
:10182000988D2BEA3AEA4AEA50E40E944711DC011B
:10183000CB01898B9A8BAB8BBC8B69897A898B891D
:101840009C8920E030E040E85FE30E944D1388234C
:101850001CF481E0888B91C069897A898B899C8985
:1018600020E030E04FE753E40E94ED1218160CF030
:101870007BC06D897E898F89988D20E030E04AE7B2
:1018800054E40E944112DC01CB018C879D87AE8716
:10189000BF876C857D858E859F8520E030E04AE797
:1018A00055E40E944711DC01CB0188879987AA87FC
:1018B000BB87688579858A859B8520E030E040E894
:1018C0005FE30E944D1388232CF481E090E09F8316
:1018D0008E833FC0688579858A859B8520E03FEFB0
:1018E0004FE757E40E94ED1218164CF56C857D8584
:1018F0008E859F8520E030E040E251E40E94471150
:10190000DC01CB01BC01CD010E94710FDC01CB01D8
:101910009F838E830FC080E991E09D838C838C81AF
:101920009D810197F1F79D838C838E819F81019723
:101930009F838E838E819F81009769F724C068857D
:1019400079858A859B850E94710FDC01CB019F837D
:101950008E838E819F819B838A838A819B8101975D
:10196000F1F79B838A830FC069897A898B899C8967
:101970000E94710FDC01CB01888B88898983898162
:101980008A95F1F78983CF59DF4F0FB6F894DEBF00
:101990000FBECDBFCF91DF911F910F910895DF93BF
:1019A000CF9300D000D0CDB7DEB79C838B831A8253
:1019B00019821A8219820FC029813A818B819C81F8
:1019C000FC01E20FF31F80810E941B0489819A8130
:1019D00001969A83898329813A818B819C81FC01BC
:1019E000E20FF31F8081882339F70F900F900F903B
:1019F0000F90CF91DF910895DF93CF93CDB7DEB7EE
:101A0000E4970FB6F894DEBF0FBECDBF0E949A01D7
:101A10000E9484030E940D0380E090E0A0E0B0E00B
:101A20008D8F9E8FAF8FB8A380E090E0A0E0B0E0F4
:101A3000898F9A8FAB8FBC8F80E090E0A0E0B0E000
:101A40008D8B9E8BAF8BB88F80E090E0A0E0B0E0F4
:101A5000898B9A8BAB8BBC8B80E00E945303CC01AB
:101A6000A0E0B0E0BC01CD010E94D113DC01CB01AC
:101A7000BC01CD012DEC3CEC4CE453E40E9441123E
:101A8000DC01CB018D8F9E8FAF8FB8A381E00E94C8
:101A90005303CC01A0E0B0E0BC01CD010E94D11302
:101AA000DC01CB01BC01CD012DEC3CEC4CE453E45A
:101AB0000E944112DC01CB01898F9A8FAB8FBC8FC2
:101AC00082E00E945303CC01A0E0B0E0BC01CD0154
:101AD0000E94D113DC01CB01BC01CD012DEC3CEC0B
:101AE0004CE453E40E944112DC01CB018D8B9E8BB0
:101AF000AF8BB88F83E00E945303CC01A0E0B0E02D
:101B0000BC01CD010E94D113DC01CB01BC01CD0190
:101B10002DEC3CEC4CE453E40E944112DC01CB017F
:101B2000898B9A8BAB8BBC8B80E090E0ACE8B2E405
:101B30008D879E87AF87B88B80E090E0A4E9B3E4FF
:101B400089879A87AB87BC8783E393E3A5E2B2E4F6
:101B50008D839E83AF83B88780E090E0ACE5B2E4EC
:101B600089839A83AB83BC831CAA6D8D7E8D8F8DF8
:101B700098A12D853E854F8558890E94ED12181633
:101B800014F481E08CAB81E09CA98927882309F0BB
:101B900041C01BAA698D7A8D8B8D9C8D29853A85D4
:101BA0004B855C850E944D13882314F481E08BAB38
:101BB00081E09BA98927882369F51AAA6D897E8906
:101BC0008F89988D2D813E814F8158850E944D13BC
:101BD000882314F481E08AAB81E09AA989278823BD
:101BE000C9F419AA69897A898B899C8929813A81E2
:101BF0004B815C810E94ED12181614F481E089ABD0
:101C000081E099A98927882329F480EC90E00E943B
:101C1000CF0C5CC118AA6D8D7E8D8F8D98A12D85FE
:101C20003E854F8558890E944D13882314F481E026
:101C300088AB81E098A98927882309F041C01FA6B5
:101C4000698D7A8D8B8D9C8D29853A854B855C8538
:101C50000E944D13882314F481E08FA781E09FA593
:101C60008927882369F51EA66D897E898F89988DBD
:101C70002D813E814F8158850E94ED12181614F473
:101C800081E08EA781E09EA589278823C9F41DA63F
:101C900069897A898B899C8929813A814B815C8108
:101CA0000E944D13882314F481E08DA781E09DA547
:101CB0008927882329F487EC90E00E94CF0C06C185
:101CC0001CA66D8D7E8D8F8D98A12D853E854F85AF
:101CD00058890E94ED12181614F481E08CA781E057
:101CE0009CA58927882309F041C01BA6698D7A8DA0
:101CF0008B8D9C8D29853A854B855C850E944D1383
:101D0000882314F481E08BA781E09BA58927882391
:101D100069F51AA66D897E898F89988D2D813E81FE
:101D20004F8158850E94ED12181614F481E08AA79D
:101D300081E09AA589278823C9F419A669897A8937
:101D40008B899C8929813A814B815C810E944D134A
:101D5000882314F481E089A781E099A58927882345
:101D600029F483ED90E00E94CF0CB0C018A66D8DD1
:101D70007E8D8F8D98A12D853E854F8558890E9437
:101D80004D13882314F481E088A781E098A5892762
:101D9000882309F041C01FA2698D7A8D8B8D9C8D9F
:101DA00029853A854B855C850E94ED12181614F43E
:101DB00081E08FA381E09FA18927882369F51EA276
:101DC0006D897E898F89988D2D813E814F815885BF
:101DD0000E94ED12181614F481E08EA381E09EA1FA
:101DE00089278823C9F41DA269897A898B899C89EE
:101DF00029813A814B815C810E94ED12181614F4FE
:101E000081E08DA381E09DA18927882329F481EEBB
:101E100090E00E94CF0C5AC01CA26D8D7E8D8F8DDC
:101E200098A12D853E854F8558890E944D138823A2
:101E300014F481E08CA381E09CA18927882309F018
:101E400041C01BA2698D7A8D8B8D9C8D29853A8529
:101E50004B855C850E944D13882314F481E08BA38D
:101E600081E09BA18927882369F51AA26D897E8963
:101E70008F89988D2D813E814F8158850E944D1309
:101E8000882314F481E08AA381E09AA1892788231A
:101E9000C9F419A269897A898B899C8929813A8137
:101EA0004B815C810E944D13882314F481E089A347
:101EB00081E099A18927882329F484EE90E00E948B
:101EC000CF0C04C081EF90E00E94CF0C80E090E046
:101ED000E4960FB6F894DEBF0FBECDBFCF91DF9171
:101EE0000895EF92FF920F931F937B018C0120E0E6
:101EF00030E040E05FE40E941D1388238CF0C801AD
:101F0000B70120E030E040E05FE40E94E9100E9469
:101F10007D139B01AC01205030404040504806C02A
:101F2000C801B7010E947D139B01AC01B901CA0130
:101F30001F910F91FF90EF900895A0E0B0E0E3EAC9
:101F4000FFE00C943F16DC012B01FA019C919230CA
:101F500008F439C1EB018881823008F433C1943030
:101F600069F4843009F02FC111969C9111978981F1
:101F7000981709F428C1A9EFB0E025C1843009F40D
:101F800021C18230A9F4923009F01DC19A01AD013E
:101F900088E0EA010990AE01E90109929E018150B1
:101FA000C1F7E201898111969C918923818308C13F
:101FB000923009F407C112962D903C901397EB01D3
:101FC0008A819B811496AD90BD90CD90DC9017973F
:101FD000EC80FD800E811F819101281B390BB90116
:101FE00037FF04C066277727621B730B60327105C9
:101FF0000CF061C0121613066CF537014801062E6D
:1020000004C096948794779467940A94D2F721E059
:1020100030E040E050E004C0220F331F441F551F42
:102020006A95D2F721503040404050402E213F2148
:1020300040235123211531054105510521F021E0AF
:1020400030E040E050E079018A01E628F7280829CD
:1020500019293CC0232BD1F1260E371E350146012C
:10206000062E04C096948794779467940A94D2F7C6
:1020700021E030E040E050E004C0220F331F441F55
:10208000551F6A95D2F721503040404050402A21D8
:102090003B214C215D21211531054105510521F0E0
:1020A00021E030E040E050E059016A01A628B7285D
:1020B000C828D9280BC0821593052CF01C01AA242E
:1020C000BB24650103C0EE24FF24870111969C9177
:1020D000D20111968C91981709F445C0992339F0D3
:1020E000A80197012A193B094C095D0906C0A60100
:1020F00095012E193F09400B510B57FD08C0118265
:102100003382228224833583468357831DC081E036
:1021100081833382228288279927DC01821B930BDB
:10212000A40BB50B84839583A683B7830DC0220FC0
:10213000331F441F551F2483358346835783828171
:1021400093810197938382832481358146815781CE
:10215000DA01C9010197A109B1098F5F9F4FAF4F04
:10216000BF4328F30BC0918333822282EA0CFB1C0D
:102170000C1D1D1DE482F5820683178383E0808396
:10218000248135814681578157FF1AC0C901AA278A
:1021900097FDA095BA2F81709070A070B070569581
:1021A000479537952795822B932BA42BB52B8483AA
:1021B0009583A683B78382819381019693838283DB
:1021C000DF0101C0D201CD01CDB7DEB7E2E10C9451
:1021D0005B16A0E2B0E0EFEEF0E10C944B166983E1
:1021E0007A838B839C832D833E834F835887E9E0DA
:1021F000EE2EF12CEC0EFD1ECE010196B7010E94D1
:102200006E158E010F5E1F4FCE010596B8010E941C
:102210006E158A8991E089278A8BC701B801AE01C2
:10222000475E5F4F0E949D0F0E949914A096E6E0C2
:102230000C946716A0E2B0E0E0E2F1E10C944B16DA
:1022400069837A838B839C832D833E834F83588756
:10225000F9E0EF2EF12CEC0EFD1ECE010196B70138
:102260000E946E158E010F5E1F4FCE010596B801BC
:102270000E946E15C701B801AE01475E5F4F0E9414
:102280009D0F0E949914A096E6E00C946716A0E2B8
:10229000B0E0EDE4F1E10C943F1669837A838B831F
:1022A0009C832D833E834F835887CE010196BE01C8
:1022B000675F7F4F0E946E15CE010596BE016F5E6F
:1022C0007F4F0E946E159985923088F089898230FF
:1022D000C8F0943019F4823051F404C0843029F4E9
:1022E000923081F489EF90E0C6C0923049F420E04A
:1022F0009A858A89981321E02A87CE010996BBC066
:10230000823049F420E09A858A89981321E02A8B4B
:10231000CE014196B0C02D843E844F8458886D888C
:102320007E888F88988CEE24FF248701AA24BB2402
:10233000650140E050E060E070E0E0E0F0E0C10105
:1023400081709070892BE9F0E60CF71C081D191DAF
:102350009A01AB012A0D3B1D4C1D5D1D80E090E0F4
:10236000A0E0B0E0E614F7040805190520F481E0C8
:1023700090E0A0E0B0E0BA01A901480F591F6A1F20
:102380007B1FAA0CBB1CCC1CDD1C97FE08C081E087
:1023900090E0A0E0B0E0A82AB92ACA2ADB2A319648
:1023A000E032F10549F0660C771C881C991C5694A4
:1023B000479437942794C3CFFA85EA892B893C89BF
:1023C0008B859C85280F391F2E5F3F4F17C0CA0190
:1023D00081709070892B61F016950795F794E794BA
:1023E00080E090E0A0E0B0E8E82AF92A0A2B1B2B55
:1023F00076956795579547952F5F3F4F77FDE7CFC8
:102400000CC0440F551F661F771F17FD4160EE0C6F
:10241000FF1C001F111F21503040403090E0590731
:1024200090E0690790E4790760F32B8F3C8FDB0124
:10243000CA018F779070A070B07080349105A105AB
:10244000B10561F447FD0AC0E114F104010511056D
:1024500029F0405C5F4F6F4F7F4F40781A8EFE1718
:1024600011F081E08A8F4D8F5E8F6F8F78A383E0AC
:10247000898FCE0149960E949914A096E2E10C94AE
:102480005B16A8E1B0E0E7E4F2E10C94471669833B
:102490007A838B839C832D833E834F835887B9E057
:1024A000EB2EF12CEC0EFD1ECE010196B7010E9421
:1024B0006E158E010F5E1F4FCE010596B8010E946A
:1024C0006E152985223008F47EC03989323010F427
:1024D000B8017CC08A859A8989278A87243011F0BF
:1024E000223031F4231709F06EC069EF70E06EC03E
:1024F000343039F41D861E861F86188A1C861B867A
:1025000004C0323021F484E08987B7015FC02B8595
:102510003C858B899C89281B390B3C872B87ED8454
:10252000FE840F851889AD88BE88CF88D88CEA14C0
:10253000FB040C051D0540F4EE0CFF1C001F111FD1
:10254000215030403C872B8720E030E040E050E0D5
:1025500080E090E0A0E0B0E460E070E0EA14FB040A
:102560000C051D0540F0282B392B4A2B5B2BEA1854
:10257000FB080C091D09B695A79597958795EE0C54
:10258000FF1C001F111F6F5F7F4F6F31710531F707
:10259000DA01C9018F779070A070B0708034910516
:1025A000A105B10561F427FD0AC0E114F10401059C
:1025B000110529F0205C3F4F4F4F5F4F20782D874A
:1025C0003E874F87588BBE01675F7F4FCB010E94CC
:1025D00099146896EAE00C946316A8E1B0E0E3EF82
:1025E000F2E10C944B1669837A838B839C832D8351
:1025F0003E834F83588789E0E82EF12CEC0EFD1EB8
:10260000CE010196B7010E946E158E010F5E1F4F1D
:10261000CE010596B8010E946E158985823040F082
:102620008989823028F0C701B8010E94E61501C0EF
:102630008FEF6896E6E00C946716A8E1B0E0E3E25D
:10264000F3E10C944B1669837A838B839C832D83EF
:102650003E834F83588789E0E82EF12CEC0EFD1E57
:10266000CE010196B7010E946E158E010F5E1F4FBD
:10267000CE010596B8010E946E158985823040F022
:102680008989823028F0C701B8010E94E61501C08F
:102690008FEF6896E6E00C946716A8E1B0E0E3E5FA
:1026A000F3E10C944B1669837A838B839C832D838F
:1026B0003E834F83588789E0E82EF12CEC0EFD1EF7
:1026C000CE010196B7010E946E158E010F5E1F4F5D
:1026D000CE010596B8010E946E158985823040F0C2
:1026E0008989823028F0C701B8010E94E61501C02F
:1026F00081E06896E6E00C946716ACE0B0E0E3E8B1
:10270000F3E10C944F1669837A838B839C83CE010B
:102710000196BE016B5F7F4F0E946E158D818230E6
:1027200061F1823050F1843021F48E81882351F19F
:102730002EC02F81388537FD20C06E812F313105A5
:102740001CF06623F9F023C08EE190E0821B930B0E
:1027500029853A854B855C8504C056954795379504
:1027600027958A95D2F76623B1F05095409530951C
:1027700021953F4F4F4F5F4F0EC020E030E040E0CB
:1027800050E009C02FEF3FEF4FEF5FE704C020E0BC
:1027900030E040E050E8B901CA012C96E2E00C9428
:1027A0006B16A8E0B0E0E7EDF3E10C9447167B016F
:1027B0008C01611571058105910519F482E0898309
:1027C00060C083E089838EE1C82ED12CDC82CB826D
:1027D000ED82FE820F831887C801B7010E944A1458
:1027E000FC013197F7FF3BC0222733272E1B3F0BFD
:1027F00057016801022E04C0D694C794B794A794D9
:102800000A94D2F740E050E060E070E081E090E0B0
:10281000A0E0B0E004C0880F991FAA1FBB1F2A9533
:10282000D2F70197A109B1098E219F21A023B123DD
:102830000097A105B10521F041E050E060E070E0B3
:102840004A295B296C297D294D835E836F837887B4
:102850008EE190E08E1B9F0B9C838B8312C0309780
:1028600081F00E2E04C0EE0CFF1C001F111F0A94F5
:10287000D2F7ED82FE820F831887CE1ADF0ADC8240
:10288000CB821A82CE0101960E9499142896EAE022
:102890000C946316EF92FF920F931F937B018C01B0
:1028A00080E0E81680E0F80681E0080780E018077D
:1028B00088F48FEFE816F1040105110531F028F0D6
:1028C00088E090E0A0E0B0E017C080E090E0A0E0F9
:1028D000B0E012C080E0E81680E0F80680E008076B
:1028E00081E0180728F088E190E0A0E0B0E004C0A3
:1028F00080E190E0A0E0B0E020E230E040E050E095
:10290000281B390B4A0B5B0B04C016950795F794EF
:10291000E7948A95D2F7F701EF5FFE4F8081281B7D
:10292000310941095109C9011F910F91FF90EF90A1
:102930000895DF92EF92FF920F931F93FC01E480C2
:10294000F58006811781D1808081823048F480E053
:1029500090E0A0E1B0E0E82AF92A0A2B1B2BA5C0E1
:10296000843009F49FC0823021F4EE24FF248701D3
:1029700005C0E114F1040105110519F4E0E0F0E0EF
:1029800096C0628173819FEF623879070CF05BC05B
:1029900022E83FEF261B370B2A3131052CF020E0CF
:1029A00030E040E050E02AC0B801A701022E04C088
:1029B00076956795579547950A94D2F781E090E010
:1029C000A0E0B0E004C0880F991FAA1FBB1F2A9582
:1029D000D2F70197A109B1098E219F21A023B1232C
:1029E0000097A105B10521F081E090E0A0E0B0E002
:1029F0009A01AB01282B392B4A2B5B2BDA01C90139
:102A00008F779070A070B07080349105A105B105EA
:102A100039F427FF09C0205C3F4F4F4F5F4F04C080
:102A2000215C3F4F4F4F5F4FE0E0F0E02030A0E0EF
:102A30003A07A0E04A07A0E45A0710F0E1E0F0E00E
:102A400079018A0127C06038710564F5FB01E158FE
:102A5000FF4FD801C7018F779070A070B07080349D
:102A60009105A105B10539F4E7FE0DC080E490E0C1
:102A7000A0E0B0E004C08FE390E0A0E0B0E0E80E9A
:102A8000F91E0A1F1B1F17FF05C016950795F7941F
:102A9000E794319687E016950795F794E7948A9521
:102AA000D1F705C0EE24FF248701EFEFF0E06E2F91
:102AB000679566276795902F9F77D794DD24D794E5
:102AC0008E2F8695492F462B582F5D29B701CA01B5
:102AD0001F910F91FF90EF90DF900895FC01DB01B3
:102AE000408151812281622F6F7770E0221F22275F
:102AF000221F9381892F880F822B282F30E0991F66
:102B00009927991F11969C93119721153105A9F5C5
:102B1000411551056105710511F482E037C082E865
:102B20009FEF13969C938E9312979A01AB0167E0E7
:102B3000220F331F441F551F6A95D1F783E08C93F2
:102B40000DC0220F331F441F551F12968D919C916B
:102B50001397019713969C938E931297203080E0E1
:102B6000380780E0480780E4580758F314962D93FF
:102B70003D934D935C93179708952F3F310579F45A
:102B8000411551056105710519F484E08C93089590
:102B900064FF03C081E08C9312C01C9210C02F57B9
:102BA000304013963C932E93129783E08C9387E0EA
:102BB000440F551F661F771F8A95D1F770641496CE
:102BC0004D935D936D937C93179708951F93DC014C
:102BD000FB019C91923008F447C08081823008F458
:102BE00043C0943051F411961C91843099F5818141
:102BF000682F70E0611B71093FC0843021F0923072
:102C000031F48230B9F18181882389F12DC0119688
:102C10001C9111978230F1F081811817D9F4129626
:102C20002D913C911397828193818217930794F0A1
:102C300028173907BCF014968D919D910D90BC9189
:102C4000A02D2481358146815781281739074A07ED
:102C50005B0718F4112341F00AC082179307A407F9
:102C6000B50740F4112319F061E070E005C06FEF83
:102C70007FEF02C060E070E0CB011F9108952F92BA
:102C80003F924F925F926F927F928F929F92AF92FC
:102C9000BF92CF92DF92EF92FF920F931F93CF9349
:102CA000DF93CDB7DEB7CA1BDB0B0FB6F894DEBFE0
:102CB0000FBECDBF09942A88398848885F846E8406
:102CC0007D848C849B84AA84B984C884DF80EE8050
:102CD000FD800C811B81AA81B981CE0FD11D0FB659
:102CE000F894DEBF0FBECDBFED010895F894FFCF7D
:102CF00000000000010000020000030000040100C9
:102D000005010006010007010100010101010102A6
:102D1000010103010104010105010106010107018F
:102D2000020000020100020200020300020400028D
:102D3000050002060002070003000103010103026F
:102D40000103030103040103050103060103070155
:102D50005065616365210049206C6F766520596F6D
:102D6000752000546861742773204E6963652120C3
:102D7000004F4B0053746F7020506C656173652178
:102D8000004552524F522121000000000000000077
:102D90000000010202030303030404040404040406
:102DA00004050505050505050505050505050505D4
:102DB00005060606060606060606060606060606B4
:102DC00006060606060606060606060606060606A3
:102DD0000607070707070707070707070707070784
:102DE0000707070707070707070707070707070773
:102DF0000707070707070707070707070707070763
:102E00000707070707070707070707070707070752
:102E10000708080808080808080808080808080833
:102E20000808080808080808080808080808080822
:102E30000808080808080808080808080808080812
:102E40000808080808080808080808080808080802
:102E500008080808080808080808080808080808F2
:102E600008080808080808080808080808080808E2
:102E700008080808080808080808080808080808D2
:102E800008080808080808080808080808080808C2
:022E9000080038
:00000001FF
